{
  "address": "0x19212862Fde5cc6053d801AAB76FC0db23478427",
  "abi": [
    {
      "inputs": [
        {
          "internalType": "address",
          "name": "initialOwner",
          "type": "address"
        }
      ],
      "stateMutability": "nonpayable",
      "type": "constructor"
    },
    {
      "inputs": [
        {
          "internalType": "address",
          "name": "owner",
          "type": "address"
        }
      ],
      "name": "OwnableInvalidOwner",
      "type": "error"
    },
    {
      "inputs": [
        {
          "internalType": "address",
          "name": "account",
          "type": "address"
        }
      ],
      "name": "OwnableUnauthorizedAccount",
      "type": "error"
    },
    {
      "inputs": [],
      "name": "ReentrancyGuardReentrantCall",
      "type": "error"
    },
    {
      "anonymous": false,
      "inputs": [
        {
          "indexed": true,
          "internalType": "address",
          "name": "previousOwner",
          "type": "address"
        },
        {
          "indexed": true,
          "internalType": "address",
          "name": "newOwner",
          "type": "address"
        }
      ],
      "name": "OwnershipTransferred",
      "type": "event"
    },
    {
      "anonymous": false,
      "inputs": [
        {
          "indexed": true,
          "internalType": "address",
          "name": "buyer",
          "type": "address"
        },
        {
          "indexed": false,
          "internalType": "uint256",
          "name": "amount",
          "type": "uint256"
        },
        {
          "indexed": false,
          "internalType": "uint256",
          "name": "totalPrice",
          "type": "uint256"
        }
      ],
      "name": "PaintTokensPurchased",
      "type": "event"
    },
    {
      "anonymous": false,
      "inputs": [
        {
          "indexed": true,
          "internalType": "uint256",
          "name": "pixelId",
          "type": "uint256"
        },
        {
          "indexed": false,
          "internalType": "uint256",
          "name": "color",
          "type": "uint256"
        }
      ],
      "name": "PixelChanged",
      "type": "event"
    },
    {
      "inputs": [],
      "name": "CANVAS_HEIGHT",
      "outputs": [
        {
          "internalType": "uint256",
          "name": "",
          "type": "uint256"
        }
      ],
      "stateMutability": "view",
      "type": "function"
    },
    {
      "inputs": [],
      "name": "CANVAS_WIDTH",
      "outputs": [
        {
          "internalType": "uint256",
          "name": "",
          "type": "uint256"
        }
      ],
      "stateMutability": "view",
      "type": "function"
    },
    {
      "inputs": [],
      "name": "PAINT_TOKEN_PRICE",
      "outputs": [
        {
          "internalType": "uint256",
          "name": "",
          "type": "uint256"
        }
      ],
      "stateMutability": "view",
      "type": "function"
    },
    {
      "inputs": [],
      "name": "PAINT_TOKEN_SUPPLY",
      "outputs": [
        {
          "internalType": "uint256",
          "name": "",
          "type": "uint256"
        }
      ],
      "stateMutability": "view",
      "type": "function"
    },
    {
      "inputs": [],
      "name": "TOTAL_PIXELS",
      "outputs": [
        {
          "internalType": "uint256",
          "name": "",
          "type": "uint256"
        }
      ],
      "stateMutability": "view",
      "type": "function"
    },
    {
      "inputs": [
        {
          "internalType": "uint256",
          "name": "amount",
          "type": "uint256"
        }
      ],
      "name": "buyPaintTokens",
      "outputs": [],
      "stateMutability": "payable",
      "type": "function"
    },
    {
      "inputs": [],
      "name": "getAllPixels",
      "outputs": [
        {
          "internalType": "uint256[]",
          "name": "",
          "type": "uint256[]"
        }
      ],
      "stateMutability": "view",
      "type": "function"
    },
    {
      "inputs": [
        {
          "internalType": "uint256",
          "name": "pixelId",
          "type": "uint256"
        }
      ],
      "name": "getPixel",
      "outputs": [
        {
          "components": [
            {
              "internalType": "uint256",
              "name": "color",
              "type": "uint256"
            }
          ],
          "internalType": "struct CollaborativeArtCanvas.Pixel",
          "name": "",
          "type": "tuple"
        }
      ],
      "stateMutability": "view",
      "type": "function"
    },
    {
      "inputs": [],
      "name": "owner",
      "outputs": [
        {
          "internalType": "address",
          "name": "",
          "type": "address"
        }
      ],
      "stateMutability": "view",
      "type": "function"
    },
    {
      "inputs": [],
      "name": "paintToken",
      "outputs": [
        {
          "internalType": "contract PaintToken",
          "name": "",
          "type": "address"
        }
      ],
      "stateMutability": "view",
      "type": "function"
    },
    {
      "inputs": [
        {
          "internalType": "uint256",
          "name": "",
          "type": "uint256"
        }
      ],
      "name": "pixels",
      "outputs": [
        {
          "internalType": "uint256",
          "name": "color",
          "type": "uint256"
        }
      ],
      "stateMutability": "view",
      "type": "function"
    },
    {
      "inputs": [],
      "name": "renounceOwnership",
      "outputs": [],
      "stateMutability": "nonpayable",
      "type": "function"
    },
    {
      "inputs": [
        {
          "internalType": "uint256[]",
          "name": "pixelIds",
          "type": "uint256[]"
        },
        {
          "internalType": "uint256[]",
          "name": "colors",
          "type": "uint256[]"
        }
      ],
      "name": "setPixelColors",
      "outputs": [],
      "stateMutability": "nonpayable",
      "type": "function"
    },
    {
      "inputs": [
        {
          "internalType": "address",
          "name": "newOwner",
          "type": "address"
        }
      ],
      "name": "transferOwnership",
      "outputs": [],
      "stateMutability": "nonpayable",
      "type": "function"
    },
    {
      "inputs": [],
      "name": "withdraw",
      "outputs": [],
      "stateMutability": "nonpayable",
      "type": "function"
    }
  ],
  "transactionHash": "0xd1c4f4a4638d6660e01d62b9ec2432bf6abb16463b69610ec5d1085a29cd3548",
  "args": [
    "0x61723016B6051E16e7ba5017143baf980F54Fc79"
  ],
  "numDeployments": 1,
  "solcInputHash": "6cb4a328312801bdb644e326fa13e11e",
  "bytecode": "0x608060405234801561001057600080fd5b50604051611e57380380611e5783398101604081905261002f9161013b565b806001600160a01b03811661005e57604051631e4fbdf760e01b81526000600482015260240160405180910390fd5b610067816100de565b50600180556040516a084595161401484a0000009030906100879061012e565b9182526001600160a01b03166020820152604001604051809103906000f0801580156100b7573d6000803e3d6000fd5b50600380546001600160a01b0319166001600160a01b03929092169190911790555061016b565b600080546001600160a01b038381166001600160a01b0319831681178455604051919092169283917f8be0079c531659141344cd1fd0a4f28419497f9722a3daafe3b4186f6b6457e09190a35050565b610df08061106783390190565b60006020828403121561014d57600080fd5b81516001600160a01b038116811461016457600080fd5b9392505050565b610eed8061017a6000396000f3fe6080604052600436106100e85760003560e01c80638da7f2321161008a578063d77544ef11610059578063d77544ef14610252578063eceb054f14610272578063ed4127df14610187578063f2fde38b1461029257600080fd5b80638da7f232146101ce578063a29497c2146101fb578063b4f80eb914610210578063b9e046b01461023f57600080fd5b806370d72d63116100c657806370d72d6314610150578063715018a61461017257806371bf439e146101875780638da5cb5b1461019c57600080fd5b80633503a8bf146100ed5780633ccfd60b1461011a5780633db1323a14610131575b600080fd5b3480156100f957600080fd5b50610107651b48eb57e00081565b6040519081526020015b60405180910390f35b34801561012657600080fd5b5061012f6102b2565b005b34801561013d57600080fd5b506101076a084595161401484a00000081565b34801561015c57600080fd5b5061016561037d565b6040516101119190610c6b565b34801561017e57600080fd5b5061012f61042b565b34801561019357600080fd5b50610107604081565b3480156101a857600080fd5b506000546001600160a01b03165b6040516001600160a01b039091168152602001610111565b3480156101da57600080fd5b506101076101e9366004610caf565b60026020526000908152604090205481565b34801561020757600080fd5b5061010761043d565b34801561021c57600080fd5b5061023061022b366004610caf565b61044b565b60405190518152602001610111565b61012f61024d366004610caf565b6104d7565b34801561025e57600080fd5b506003546101b6906001600160a01b031681565b34801561027e57600080fd5b5061012f61028d366004610d79565b610710565b34801561029e57600080fd5b5061012f6102ad366004610ddd565b610b68565b6102ba610ba3565b6102c2610bd0565b4760006102d76000546001600160a01b031690565b6001600160a01b03168260405160006040518083038185875af1925050503d8060008114610321576040519150601f19603f3d011682016040523d82523d6000602084013e610326565b606091505b50509050806103705760405162461bcd60e51b815260206004820152601160248201527015da5d1a191c985dd85b0819985a5b1959607a1b60448201526064015b60405180910390fd5b505061037b60018055565b565b6060600061038c604080610e23565b67ffffffffffffffff8111156103a4576103a4610cc8565b6040519080825280602002602001820160405280156103cd578160200160208202803683370190505b50905060005b6103de604080610e23565b81101561042557600081815260026020526040902054825183908390811061040857610408610e3a565b60209081029190910101528061041d81610e50565b9150506103d3565b50919050565b610433610ba3565b61037b6000610bfa565b610448604080610e23565b81565b604080516020810190915260008152610465604080610e23565b82106104a65760405162461bcd60e51b815260206004820152601060248201526f125b9d985b1a59081c1a5e195b08125160821b6044820152606401610367565b60008281526002602090815260408083208151928301909152548082529091036104d15762ffffff81525b92915050565b6104df610bd0565b6000811161052f5760405162461bcd60e51b815260206004820181905260248201527f416d6f756e74206d7573742062652067726561746572207468616e207a65726f6044820152606401610367565b600061054182651b48eb57e000610e23565b90508034101561058b5760405162461bcd60e51b8152602060048201526015602482015274125b9cdd59999a58da595b9d08115512081cd95b9d605a1b6044820152606401610367565b6003546001600160a01b031663a9059cbb336105af670de0b6b3a764000086610e23565b6040516001600160e01b031960e085901b1681526001600160a01b03909216600483015260248201526044016020604051808303816000875af11580156105fa573d6000803e3d6000fd5b505050506040513d601f19601f8201168201806040525081019061061e9190610e69565b50337fc5379320cffff97ac4c1d6d8999bfbdbc6158d3a27dd7d3d4ec42091479919b0610653670de0b6b3a764000085610e23565b60408051918252602082018590520160405180910390a2803411156107035760003361067f8334610e8b565b604051600081818185875af1925050503d80600081146106bb576040519150601f19603f3d011682016040523d82523d6000602084013e6106c0565b606091505b50509050806107015760405162461bcd60e51b815260206004820152600d60248201526c1499599d5b990819985a5b1959609a1b6044820152606401610367565b505b5061070d60018055565b50565b610718610bd0565b81518061075a5760405162461bcd60e51b815260206004820152601060248201526f139bc81c1a5e195b1cc81d1bc81cd95d60821b6044820152606401610367565b815181146107aa5760405162461bcd60e51b815260206004820152601860248201527f4d69736d617463686564206172726179206c656e6774687300000000000000006044820152606401610367565b6107b5604080610e23565b8111156108175760405162461bcd60e51b815260206004820152602a60248201527f43616e6e6f74206368616e6765206d6f7265207468616e2031303020706978656044820152696c73206174206f6e636560b01b6064820152608401610367565b61081f610c4a565b60005b8281101561092d57600085828151811061083e5761083e610e3a565b602002602001015190506040806108559190610e23565b81106108965760405162461bcd60e51b815260206004820152601060248201526f125b9d985b1a59081c1a5e195b08125160821b6044820152606401610367565b828161100081106108a9576108a9610e3a565b6020020151156108fb5760405162461bcd60e51b815260206004820152601b60248201527f4475706c696361746520706978656c20494420646574656374656400000000006044820152606401610367565b60018382611000811061091057610910610e3a565b91151560209092020152508061092581610e50565b915050610822565b506000610942670de0b6b3a764000084610e23565b6003546040516370a0823160e01b815233600482015291925082916001600160a01b03909116906370a0823190602401602060405180830381865afa15801561098f573d6000803e3d6000fd5b505050506040513d601f19601f820116820180604052508101906109b39190610e9e565b1015610a015760405162461bcd60e51b815260206004820152601960248201527f496e73756666696369656e74205061696e7420746f6b656e73000000000000006044820152606401610367565b60035460405163079cc67960e41b8152336004820152602481018390526001600160a01b03909116906379cc679090604401600060405180830381600087803b158015610a4d57600080fd5b505af1158015610a61573d6000803e3d6000fd5b5050505060005b83811015610b57576000868281518110610a8457610a84610e3a565b602002602001015190506000868381518110610aa257610aa2610e3a565b6020026020010151905062ffffff811115610af55760405162461bcd60e51b8152602060048201526013602482015272496e76616c696420636f6c6f722076616c756560681b6044820152606401610367565b600082815260026020526040908190208290555182907f7972cf16996fc8b909d4dfface0139ef018c9f639f60bc0047146a281f15337190610b3a9084815260200190565b60405180910390a250508080610b4f90610e50565b915050610a68565b50505050610b6460018055565b5050565b610b70610ba3565b6001600160a01b038116610b9a57604051631e4fbdf760e01b815260006004820152602401610367565b61070d81610bfa565b6000546001600160a01b0316331461037b5760405163118cdaa760e01b8152336004820152602401610367565b600260015403610bf357604051633ee5aeb560e01b815260040160405180910390fd5b6002600155565b600080546001600160a01b038381166001600160a01b0319831681178455604051919092169283917f8be0079c531659141344cd1fd0a4f28419497f9722a3daafe3b4186f6b6457e09190a35050565b60405180620200000160405280611000906020820280368337509192915050565b6020808252825182820181905260009190848201906040850190845b81811015610ca357835183529284019291840191600101610c87565b50909695505050505050565b600060208284031215610cc157600080fd5b5035919050565b634e487b7160e01b600052604160045260246000fd5b600082601f830112610cef57600080fd5b8135602067ffffffffffffffff80831115610d0c57610d0c610cc8565b8260051b604051601f19603f83011681018181108482111715610d3157610d31610cc8565b604052938452858101830193838101925087851115610d4f57600080fd5b83870191505b84821015610d6e57813583529183019190830190610d55565b979650505050505050565b60008060408385031215610d8c57600080fd5b823567ffffffffffffffff80821115610da457600080fd5b610db086838701610cde565b93506020850135915080821115610dc657600080fd5b50610dd385828601610cde565b9150509250929050565b600060208284031215610def57600080fd5b81356001600160a01b0381168114610e0657600080fd5b9392505050565b634e487b7160e01b600052601160045260246000fd5b80820281158282048414176104d1576104d1610e0d565b634e487b7160e01b600052603260045260246000fd5b600060018201610e6257610e62610e0d565b5060010190565b600060208284031215610e7b57600080fd5b81518015158114610e0657600080fd5b818103818111156104d1576104d1610e0d565b600060208284031215610eb057600080fd5b505191905056fea26469706673582212203d91f9a897a31a780f0e64b3a39f7cbf0c571f6a31a79c6a1b48fe4bf6b17d8264736f6c6343000814003360a06040523480156200001157600080fd5b5060405162000df038038062000df08339810160408190526200003491620002b2565b806040518060400160405280600b81526020016a2830b4b73a102a37b5b2b760a91b81525060405180604001604052806005815260200164141052539560da1b815250816003908162000088919062000396565b50600462000097828262000396565b5050506001600160a01b038116620000ca57604051631e4fbdf760e01b8152600060048201526024015b60405180910390fd5b620000d581620000ef565b506080829052620000e7818362000141565b50506200048a565b600580546001600160a01b038381166001600160a01b0319831681179093556040519116919082907f8be0079c531659141344cd1fd0a4f28419497f9722a3daafe3b4186f6b6457e090600090a35050565b6001600160a01b0382166200016d5760405163ec442f0560e01b815260006004820152602401620000c1565b6200017b600083836200017f565b5050565b6001600160a01b038316620001ae578060026000828254620001a2919062000462565b90915550620002229050565b6001600160a01b03831660009081526020819052604090205481811015620002035760405163391434e360e21b81526001600160a01b03851660048201526024810182905260448101839052606401620000c1565b6001600160a01b03841660009081526020819052604090209082900390555b6001600160a01b03821662000240576002805482900390556200025f565b6001600160a01b03821660009081526020819052604090208054820190555b816001600160a01b0316836001600160a01b03167fddf252ad1be2c89b69c2b068fc378daa952ba7f163c4a11628f55a4df523b3ef83604051620002a591815260200190565b60405180910390a3505050565b60008060408385031215620002c657600080fd5b825160208401519092506001600160a01b0381168114620002e657600080fd5b809150509250929050565b634e487b7160e01b600052604160045260246000fd5b600181811c908216806200031c57607f821691505b6020821081036200033d57634e487b7160e01b600052602260045260246000fd5b50919050565b601f8211156200039157600081815260208120601f850160051c810160208610156200036c5750805b601f850160051c820191505b818110156200038d5782815560010162000378565b5050505b505050565b81516001600160401b03811115620003b257620003b2620002f1565b620003ca81620003c3845462000307565b8462000343565b602080601f831160018114620004025760008415620003e95750858301515b600019600386901b1c1916600185901b1785556200038d565b600085815260208120601f198616915b82811015620004335788860151825594840194600190910190840162000412565b5085821015620004525787850151600019600388901b60f8161c191681555b5050505050600190811b01905550565b808201808211156200048457634e487b7160e01b600052601160045260246000fd5b92915050565b60805161094a620004a66000396000610174015261094a6000f3fe608060405234801561001057600080fd5b50600436106100f55760003560e01c806370a082311161009757806395d89b411161006657806395d89b411461020a578063a9059cbb14610212578063dd62ed3e14610225578063f2fde38b1461025e57600080fd5b806370a08231146101ab578063715018a6146101d457806379cc6790146101dc5780638da5cb5b146101ef57600080fd5b806323b872dd116100d357806323b872dd1461014d578063313ce56714610160578063378dc3dc1461016f57806342966c681461019657600080fd5b806306fdde03146100fa578063095ea7b31461011857806318160ddd1461013b575b600080fd5b610102610271565b60405161010f919061077b565b60405180910390f35b61012b6101263660046107e5565b610303565b604051901515815260200161010f565b6002545b60405190815260200161010f565b61012b61015b36600461080f565b61031d565b6040516012815260200161010f565b61013f7f000000000000000000000000000000000000000000000000000000000000000081565b6101a96101a436600461084b565b610341565b005b61013f6101b9366004610864565b6001600160a01b031660009081526020819052604090205490565b6101a961034e565b6101a96101ea3660046107e5565b610362565b6005546040516001600160a01b03909116815260200161010f565b61010261037b565b61012b6102203660046107e5565b61038a565b61013f610233366004610886565b6001600160a01b03918216600090815260016020908152604080832093909416825291909152205490565b6101a961026c366004610864565b610398565b606060038054610280906108b9565b80601f01602080910402602001604051908101604052809291908181526020018280546102ac906108b9565b80156102f95780601f106102ce576101008083540402835291602001916102f9565b820191906000526020600020905b8154815290600101906020018083116102dc57829003601f168201915b5050505050905090565b6000336103118185856103d8565b60019150505b92915050565b60003361032b8582856103ea565b610336858585610468565b506001949350505050565b61034b33826104c7565b50565b6103566104fd565b610360600061052a565b565b61036d8233836103ea565b61037782826104c7565b5050565b606060048054610280906108b9565b600033610311818585610468565b6103a06104fd565b6001600160a01b0381166103cf57604051631e4fbdf760e01b8152600060048201526024015b60405180910390fd5b61034b8161052a565b6103e5838383600161057c565b505050565b6001600160a01b038381166000908152600160209081526040808320938616835292905220546000198114610462578181101561045357604051637dc7a0d960e11b81526001600160a01b038416600482015260248101829052604481018390526064016103c6565b6104628484848403600061057c565b50505050565b6001600160a01b03831661049257604051634b637e8f60e11b8152600060048201526024016103c6565b6001600160a01b0382166104bc5760405163ec442f0560e01b8152600060048201526024016103c6565b6103e5838383610651565b6001600160a01b0382166104f157604051634b637e8f60e11b8152600060048201526024016103c6565b61037782600083610651565b6005546001600160a01b031633146103605760405163118cdaa760e01b81523360048201526024016103c6565b600580546001600160a01b038381166001600160a01b0319831681179093556040519116919082907f8be0079c531659141344cd1fd0a4f28419497f9722a3daafe3b4186f6b6457e090600090a35050565b6001600160a01b0384166105a65760405163e602df0560e01b8152600060048201526024016103c6565b6001600160a01b0383166105d057604051634a1406b160e11b8152600060048201526024016103c6565b6001600160a01b038085166000908152600160209081526040808320938716835292905220829055801561046257826001600160a01b0316846001600160a01b03167f8c5be1e5ebec7d5bd14f71427d1e84f3dd0314c0f7b2291e5b200ac8c7c3b9258460405161064391815260200190565b60405180910390a350505050565b6001600160a01b03831661067c57806002600082825461067191906108f3565b909155506106ee9050565b6001600160a01b038316600090815260208190526040902054818110156106cf5760405163391434e360e21b81526001600160a01b038516600482015260248101829052604481018390526064016103c6565b6001600160a01b03841660009081526020819052604090209082900390555b6001600160a01b03821661070a57600280548290039055610729565b6001600160a01b03821660009081526020819052604090208054820190555b816001600160a01b0316836001600160a01b03167fddf252ad1be2c89b69c2b068fc378daa952ba7f163c4a11628f55a4df523b3ef8360405161076e91815260200190565b60405180910390a3505050565b600060208083528351808285015260005b818110156107a85785810183015185820160400152820161078c565b506000604082860101526040601f19601f8301168501019250505092915050565b80356001600160a01b03811681146107e057600080fd5b919050565b600080604083850312156107f857600080fd5b610801836107c9565b946020939093013593505050565b60008060006060848603121561082457600080fd5b61082d846107c9565b925061083b602085016107c9565b9150604084013590509250925092565b60006020828403121561085d57600080fd5b5035919050565b60006020828403121561087657600080fd5b61087f826107c9565b9392505050565b6000806040838503121561089957600080fd5b6108a2836107c9565b91506108b0602084016107c9565b90509250929050565b600181811c908216806108cd57607f821691505b6020821081036108ed57634e487b7160e01b600052602260045260246000fd5b50919050565b8082018082111561031757634e487b7160e01b600052601160045260246000fdfea26469706673582212209268d908f72d0e04cb43f0b95d6656bb9121265a3608842d90861de3004ee0aa64736f6c63430008140033",
  "devdoc": {
    "errors": {
      "OwnableInvalidOwner(address)": [
        {
          "details": "The owner is not a valid owner account. (eg. `address(0)`)"
        }
      ],
      "OwnableUnauthorizedAccount(address)": [
        {
          "details": "The caller account is not authorized to perform an operation."
        }
      ],
      "ReentrancyGuardReentrantCall()": [
        {
          "details": "Unauthorized reentrant call."
        }
      ]
    },
    "kind": "dev",
    "methods": {
      "buyPaintTokens(uint256)": {
        "params": {
          "amount": "The number of PaintTokens to purchase (without decimals)"
        }
      },
      "constructor": {
        "params": {
          "initialOwner": "The address of the initial owner"
        }
      },
      "getAllPixels()": {
        "returns": {
          "_0": "An array of pixel colors"
        }
      },
      "getPixel(uint256)": {
        "params": {
          "pixelId": "The ID of the pixel to retrieve"
        },
        "returns": {
          "_0": "The Pixel struct containing the color"
        }
      },
      "owner()": {
        "details": "Returns the address of the current owner."
      },
      "renounceOwnership()": {
        "details": "Leaves the contract without owner. It will not be possible to call `onlyOwner` functions. Can only be called by the current owner. NOTE: Renouncing ownership will leave the contract without an owner, thereby disabling any functionality that is only available to the owner."
      },
      "setPixelColors(uint256[],uint256[])": {
        "params": {
          "colors": "An array of colors corresponding to the pixel IDs",
          "pixelIds": "An array of pixel IDs to set"
        }
      },
      "transferOwnership(address)": {
        "details": "Transfers ownership of the contract to a new account (`newOwner`). Can only be called by the current owner."
      }
    },
    "title": "CollaborativeArtCanvas",
    "version": 1
  },
  "userdoc": {
    "events": {
      "PaintTokensPurchased(address,uint256,uint256)": {
        "notice": "Emitted when a user purchases PaintTokens"
      },
      "PixelChanged(uint256,uint256)": {
        "notice": "Emitted when a pixel's color is changed"
      }
    },
    "kind": "user",
    "methods": {
      "buyPaintTokens(uint256)": {
        "notice": "Allows users to purchase PaintTokens by sending ETH"
      },
      "constructor": {
        "notice": "Constructor that deploys the PaintToken contract and sets the initial owner"
      },
      "getAllPixels()": {
        "notice": "Returns an array of all pixel colors"
      },
      "getPixel(uint256)": {
        "notice": "Retrieves the color of a specific pixel"
      },
      "pixels(uint256)": {
        "notice": "Mapping from pixel ID to Pixel data"
      },
      "setPixelColors(uint256[],uint256[])": {
        "notice": "Allows users to set the colors of multiple pixels on the canvas"
      },
      "withdraw()": {
        "notice": "Allows the owner to withdraw all ETH from the contract"
      }
    },
    "notice": "A contract that allows users to collaboratively create pixel art by purchasing and setting pixel colors",
    "version": 1
  },
  "storageLayout": {
    "storage": [
      {
        "astId": 8,
        "contract": "contracts/CollaborativeArtCanvas.sol:CollaborativeArtCanvas",
        "label": "_owner",
        "offset": 0,
        "slot": "0",
        "type": "t_address"
      },
      {
        "astId": 990,
        "contract": "contracts/CollaborativeArtCanvas.sol:CollaborativeArtCanvas",
        "label": "_status",
        "offset": 0,
        "slot": "1",
        "type": "t_uint256"
      },
      {
        "astId": 1079,
        "contract": "contracts/CollaborativeArtCanvas.sol:CollaborativeArtCanvas",
        "label": "pixels",
        "offset": 0,
        "slot": "2",
        "type": "t_mapping(t_uint256,t_struct(Pixel)1073_storage)"
      },
      {
        "astId": 1113,
        "contract": "contracts/CollaborativeArtCanvas.sol:CollaborativeArtCanvas",
        "label": "paintToken",
        "offset": 0,
        "slot": "3",
        "type": "t_contract(PaintToken)1512"
      }
    ],
    "types": {
      "t_address": {
        "encoding": "inplace",
        "label": "address",
        "numberOfBytes": "20"
      },
      "t_contract(PaintToken)1512": {
        "encoding": "inplace",
        "label": "contract PaintToken",
        "numberOfBytes": "20"
      },
      "t_mapping(t_uint256,t_struct(Pixel)1073_storage)": {
        "encoding": "mapping",
        "key": "t_uint256",
        "label": "mapping(uint256 => struct CollaborativeArtCanvas.Pixel)",
        "numberOfBytes": "32",
        "value": "t_struct(Pixel)1073_storage"
      },
      "t_struct(Pixel)1073_storage": {
        "encoding": "inplace",
        "label": "struct CollaborativeArtCanvas.Pixel",
        "members": [
          {
            "astId": 1072,
            "contract": "contracts/CollaborativeArtCanvas.sol:CollaborativeArtCanvas",
            "label": "color",
            "offset": 0,
            "slot": "0",
            "type": "t_uint256"
          }
        ],
        "numberOfBytes": "32"
      },
      "t_uint256": {
        "encoding": "inplace",
        "label": "uint256",
        "numberOfBytes": "32"
      }
    }
  }
}